{
  "contractName": "Membership",
  "abi": [
    {
      "constant": true,
      "inputs": [
        {
          "name": "",
          "type": "address"
        }
      ],
      "name": "members",
      "outputs": [
        {
          "name": "packed",
          "type": "uint256"
        }
      ],
      "payable": false,
      "stateMutability": "view",
      "type": "function"
    },
    {
      "constant": true,
      "inputs": [
        {
          "name": "",
          "type": "uint256"
        }
      ],
      "name": "memberList",
      "outputs": [
        {
          "name": "",
          "type": "address"
        }
      ],
      "payable": false,
      "stateMutability": "view",
      "type": "function"
    },
    {
      "constant": true,
      "inputs": [],
      "name": "admin",
      "outputs": [
        {
          "name": "",
          "type": "address"
        }
      ],
      "payable": false,
      "stateMutability": "view",
      "type": "function"
    },
    {
      "inputs": [],
      "payable": false,
      "stateMutability": "nonpayable",
      "type": "constructor"
    },
    {
      "anonymous": false,
      "inputs": [
        {
          "indexed": false,
          "name": "votingAddr",
          "type": "address"
        },
        {
          "indexed": false,
          "name": "weight",
          "type": "uint48"
        },
        {
          "indexed": false,
          "name": "startTime",
          "type": "uint48"
        },
        {
          "indexed": false,
          "name": "endTime",
          "type": "uint48"
        }
      ],
      "name": "SetMember",
      "type": "event"
    },
    {
      "constant": false,
      "inputs": [
        {
          "name": "votingAddr",
          "type": "address"
        },
        {
          "name": "weight",
          "type": "uint32"
        },
        {
          "name": "startTime",
          "type": "uint48"
        },
        {
          "name": "endTime",
          "type": "uint48"
        }
      ],
      "name": "setMember",
      "outputs": [],
      "payable": false,
      "stateMutability": "nonpayable",
      "type": "function"
    },
    {
      "constant": true,
      "inputs": [
        {
          "name": "voter",
          "type": "address"
        }
      ],
      "name": "getMember",
      "outputs": [
        {
          "name": "weight",
          "type": "uint32"
        },
        {
          "name": "startTime",
          "type": "uint48"
        },
        {
          "name": "endTime",
          "type": "uint48"
        }
      ],
      "payable": false,
      "stateMutability": "view",
      "type": "function"
    },
    {
      "constant": true,
      "inputs": [
        {
          "name": "v",
          "type": "address"
        }
      ],
      "name": "balanceOf",
      "outputs": [
        {
          "name": "",
          "type": "uint256"
        }
      ],
      "payable": false,
      "stateMutability": "view",
      "type": "function"
    }
  ],
  "bytecode": "0x608060405234801561001057600080fd5b5033600260006101000a81548173ffffffffffffffffffffffffffffffffffffffff021916908373ffffffffffffffffffffffffffffffffffffffff1602179055506107a6806100616000396000f3fe608060405234801561001057600080fd5b506004361061007f576000357c01000000000000000000000000000000000000000000000000000000009004806308ae4b0c146100845780632ada2596146100dc57806370a082311461016e578063b307fc6d146101c6578063d5e3b6b414610234578063f851a440146102ac575b600080fd5b6100c66004803603602081101561009a57600080fd5b81019080803573ffffffffffffffffffffffffffffffffffffffff1690602001909291905050506102f6565b6040518082815260200191505060405180910390f35b61011e600480360360208110156100f257600080fd5b81019080803573ffffffffffffffffffffffffffffffffffffffff169060200190929190505050610314565b604051808463ffffffff1663ffffffff1681526020018365ffffffffffff1665ffffffffffff1681526020018265ffffffffffff1665ffffffffffff168152602001935050505060405180910390f35b6101b06004803603602081101561018457600080fd5b81019080803573ffffffffffffffffffffffffffffffffffffffff169060200190929190505050610376565b6040518082815260200191505060405180910390f35b6101f2600480360360208110156101dc57600080fd5b8101908080359060200190929190505050610415565b604051808273ffffffffffffffffffffffffffffffffffffffff1673ffffffffffffffffffffffffffffffffffffffff16815260200191505060405180910390f35b6102aa6004803603608081101561024a57600080fd5b81019080803573ffffffffffffffffffffffffffffffffffffffff169060200190929190803563ffffffff169060200190929190803565ffffffffffff169060200190929190803565ffffffffffff169060200190929190505050610453565b005b6102b46106dd565b604051808273ffffffffffffffffffffffffffffffffffffffff1673ffffffffffffffffffffffffffffffffffffffff16815260200191505060405180910390f35b60006020528060005260406000206000915090508060000154905081565b60008060006103636000808673ffffffffffffffffffffffffffffffffffffffff1673ffffffffffffffffffffffffffffffffffffffff16815260200190815260200160002060000154610703565b8093508194508295505050509193909250565b6000806000806103c66000808773ffffffffffffffffffffffffffffffffffffffff1673ffffffffffffffffffffffffffffffffffffffff16815260200190815260200160002060000154610703565b809350819450829550505050428265ffffffffffff16111580156103f25750428165ffffffffffff1610155b15610408578263ffffffff169350505050610410565b600093505050505b919050565b60018181548110151561042457fe5b906000526020600020016000915054906101000a900473ffffffffffffffffffffffffffffffffffffffff1681565b600260009054906101000a900473ffffffffffffffffffffffffffffffffffffffff1673ffffffffffffffffffffffffffffffffffffffff163373ffffffffffffffffffffffffffffffffffffffff16141515610518576040517f08c379a00000000000000000000000000000000000000000000000000000000081526004018080602001828103825260148152602001807f6d73672e73656e646572206e6f742061646d696e00000000000000000000000081525060200191505060405180910390fd5b60008060008673ffffffffffffffffffffffffffffffffffffffff1673ffffffffffffffffffffffffffffffffffffffff1681526020019081526020016000206000015414156105c95760018490806001815401808255809150509060018203906000526020600020016000909192909190916101000a81548173ffffffffffffffffffffffffffffffffffffffff021916908373ffffffffffffffffffffffffffffffffffffffff160217905550505b6020604051908101604052806105e0858585610746565b8152506000808673ffffffffffffffffffffffffffffffffffffffff1673ffffffffffffffffffffffffffffffffffffffff168152602001908152602001600020600082015181600001559050507f8f2937989bca547b6a4247d39008fc9e5b6d3dbce3e598560401f44e5e68b3fd84848484604051808573ffffffffffffffffffffffffffffffffffffffff1673ffffffffffffffffffffffffffffffffffffffff1681526020018463ffffffff1665ffffffffffff1681526020018365ffffffffffff1665ffffffffffff1681526020018265ffffffffffff1665ffffffffffff16815260200194505050505060405180910390a150505050565b600260009054906101000a900473ffffffffffffffffffffffffffffffffffffffff1681565b600080600063ffffffff606085908060020a820491505016925065ffffffffffff603085908060020a820491505016915065ffffffffffff841690509193909250565b60008165ffffffffffff1660308465ffffffffffff169060020a0260608663ffffffff169060020a0217179050939250505056fea165627a7a72305820880fa0af0986c9014ebae3f8dc0eeca513c3749c6883986ccf9b2f49df5cd6da0029",
  "source": "pragma solidity 0.5.2;\n\ncontract Membership {\n\n    uint256 constant UINT_48_MASK = 0xffffffffffff;\n    uint256 constant UINT_32_MASK = 0xffffffff;\n\n    struct Member {\n        uint256 packed;\n    }\n\n    mapping (address => Member) public members;\n    address[] public memberList;\n\n    address public admin;\n\n    event SetMember(address votingAddr, uint48 weight, uint48 startTime, uint48 endTime);\n\n\n    modifier onlyAdmin() {\n        require(msg.sender == admin, \"msg.sender not admin\");\n        _;\n    }\n\n\n\n    constructor() public {\n        admin = msg.sender;\n    }\n\n    function setMember(address votingAddr, uint32 weight, uint48 startTime, uint48 endTime) external onlyAdmin {\n        if (members[votingAddr].packed == 0) {\n            memberList.push(votingAddr);\n        }\n        members[votingAddr] = Member(pack(weight, startTime, endTime));\n        emit SetMember(votingAddr, weight, startTime, endTime);\n    }\n\n    function getMember(address voter) external view returns (uint32 weight, uint48 startTime, uint48 endTime) {\n        (weight, startTime, endTime) = unpack(members[voter].packed);\n    }\n\n    function pack(uint32 weight, uint48 start, uint48 end) internal pure returns (uint256) {\n        return (uint256(weight) << 96) | (uint256(start) << 48) | uint256(end);\n    }\n\n    function unpack(uint256 packed) internal pure returns (uint32 weight, uint48 start, uint48 end) {\n        weight = uint32((packed >> 96) & UINT_32_MASK);\n        start = uint48((packed >> 48) & UINT_48_MASK);\n        end = uint48(packed & UINT_48_MASK);\n    }\n\n\n    function balanceOf(address v) external view returns (uint256) {\n        uint32 weight; uint48 start; uint48 end;\n        (weight, start, end) = unpack(members[v].packed);\n        if (start <= now && end >= now) {\n            return weight;\n        }\n        return 0;\n    }\n\n}\n",
  "sourcePath": "/mnt/c/Users/XertroV/src/voting-alpha/ethereum/contracts/Membership.sol",
  "compiler": {
    "name": "solc",
    "version": "0.5.2+commit.1df8f40c.Emscripten.clang"
  },
  "schemaVersion": "3.0.0",
  "updatedAt": "2018-12-26T02:43:56.060Z",
  "devdoc": {
    "methods": {}
  },
  "userdoc": {
    "methods": {}
  }
}