{
  "contractName": "Membership",
  "abi": [
    {
      "constant": true,
      "inputs": [
        {
          "name": "",
          "type": "address"
        }
      ],
      "name": "members",
      "outputs": [
        {
          "name": "packed",
          "type": "uint256"
        }
      ],
      "payable": false,
      "stateMutability": "view",
      "type": "function"
    },
    {
      "constant": true,
      "inputs": [
        {
          "name": "",
          "type": "uint256"
        }
      ],
      "name": "memberList",
      "outputs": [
        {
          "name": "",
          "type": "address"
        }
      ],
      "payable": false,
      "stateMutability": "view",
      "type": "function"
    },
    {
      "inputs": [],
      "payable": false,
      "stateMutability": "nonpayable",
      "type": "constructor"
    },
    {
      "anonymous": false,
      "inputs": [
        {
          "indexed": false,
          "name": "votingAddr",
          "type": "address"
        },
        {
          "indexed": false,
          "name": "weight",
          "type": "uint48"
        },
        {
          "indexed": false,
          "name": "startTime",
          "type": "uint48"
        },
        {
          "indexed": false,
          "name": "endTime",
          "type": "uint48"
        }
      ],
      "name": "SetMember",
      "type": "event"
    },
    {
      "anonymous": false,
      "inputs": [
        {
          "indexed": false,
          "name": "admin",
          "type": "address"
        }
      ],
      "name": "AddAdmin",
      "type": "event"
    },
    {
      "anonymous": false,
      "inputs": [
        {
          "indexed": false,
          "name": "oldAdmin",
          "type": "address"
        }
      ],
      "name": "RevokeAdmin",
      "type": "event"
    },
    {
      "constant": false,
      "inputs": [
        {
          "name": "_a",
          "type": "address"
        }
      ],
      "name": "addAdmin",
      "outputs": [],
      "payable": false,
      "stateMutability": "nonpayable",
      "type": "function"
    },
    {
      "constant": false,
      "inputs": [],
      "name": "revokeAdminSelf",
      "outputs": [],
      "payable": false,
      "stateMutability": "nonpayable",
      "type": "function"
    },
    {
      "constant": true,
      "inputs": [
        {
          "name": "a",
          "type": "address"
        }
      ],
      "name": "isAdmin",
      "outputs": [
        {
          "name": "",
          "type": "bool"
        }
      ],
      "payable": false,
      "stateMutability": "view",
      "type": "function"
    },
    {
      "constant": false,
      "inputs": [
        {
          "name": "votingAddr",
          "type": "address"
        },
        {
          "name": "weight",
          "type": "uint32"
        },
        {
          "name": "startTime",
          "type": "uint48"
        },
        {
          "name": "endTime",
          "type": "uint48"
        }
      ],
      "name": "setMember",
      "outputs": [],
      "payable": false,
      "stateMutability": "nonpayable",
      "type": "function"
    },
    {
      "constant": true,
      "inputs": [
        {
          "name": "voter",
          "type": "address"
        }
      ],
      "name": "getMember",
      "outputs": [
        {
          "name": "weight",
          "type": "uint32"
        },
        {
          "name": "startTime",
          "type": "uint48"
        },
        {
          "name": "endTime",
          "type": "uint48"
        }
      ],
      "payable": false,
      "stateMutability": "view",
      "type": "function"
    },
    {
      "constant": true,
      "inputs": [
        {
          "name": "v",
          "type": "address"
        }
      ],
      "name": "balanceOf",
      "outputs": [
        {
          "name": "",
          "type": "uint256"
        }
      ],
      "payable": false,
      "stateMutability": "view",
      "type": "function"
    }
  ],
  "bytecode": "0x608060405234801561001057600080fd5b5061002960003364010000000061067e61006182021704565b6040805133815290517fad6de4452a631e641cb59902236607946ce9272b9b981f2f80e8d129cb9084ba9181900360200190a16100ef565b600160a060020a038116151561007657600080fd5b61008982826401000000006100b8810204565b1561009357600080fd5b600160a060020a0316600090815260209190915260409020805460ff19166001179055565b6000600160a060020a03821615156100cf57600080fd5b50600160a060020a03166000908152602091909152604090205460ff1690565b610779806100fe6000396000f30060806040526004361061008d5763ffffffff7c010000000000000000000000000000000000000000000000000000000060003504166308ae4b0c811461009257806324d7806c146100c55780632ada2596146100fa578063704802751461014957806370a082311461016c578063b307fc6d1461018d578063d5547260146101c1578063d5e3b6b4146101d6575b600080fd5b34801561009e57600080fd5b506100b3600160a060020a0360043516610211565b60408051918252519081900360200190f35b3480156100d157600080fd5b506100e6600160a060020a0360043516610223565b604080519115158252519081900360200190f35b34801561010657600080fd5b5061011b600160a060020a036004351661023b565b6040805163ffffffff909416845265ffffffffffff9283166020850152911682820152519081900360600190f35b34801561015557600080fd5b5061016a600160a060020a036004351661026e565b005b34801561017857600080fd5b506100b3600160a060020a0360043516610333565b34801561019957600080fd5b506101a56004356103a2565b60408051600160a060020a039092168252519081900360200190f35b3480156101cd57600080fd5b5061016a6103ca565b3480156101e257600080fd5b5061016a600160a060020a036004351663ffffffff6024351665ffffffffffff6044358116906064351661048e565b60016020526000908152604090205481565b6000610235818363ffffffff61061816565b92915050565b600160a060020a038116600090815260016020526040812054819081906102619061064f565b9196909550909350915050565b61027f60003363ffffffff61061816565b15156102ec57604080517f08c379a000000000000000000000000000000000000000000000000000000000815260206004820152600960248201527f4e4f545f41444d494e0000000000000000000000000000000000000000000000604482015290519081900360640190fd5b6102fd60008263ffffffff61067e16565b6040805133815290517fad6de4452a631e641cb59902236607946ce9272b9b981f2f80e8d129cb9084ba9181900360200190a150565b600160a060020a03811660009081526001602052604081205481908190819061035b9061064f565b919450925090504265ffffffffffff8316118015906103825750428165ffffffffffff1610155b15610395578263ffffffff16935061039a565b600093505b505050919050565b60028054829081106103b057fe5b600091825260209091200154600160a060020a0316905081565b6103db60003363ffffffff61061816565b151561044857604080517f08c379a000000000000000000000000000000000000000000000000000000000815260206004820152600960248201527f4e4f545f41444d494e0000000000000000000000000000000000000000000000604482015290519081900360640190fd5b61045960003363ffffffff6106cc16565b6040805133815290517f183889af251becf4a997a4dfca139c286ffbf8230280127118d877fe0bdad3399181900360200190a1565b61049f60003363ffffffff61061816565b151561050c57604080517f08c379a000000000000000000000000000000000000000000000000000000000815260206004820152600960248201527f4e4f545f41444d494e0000000000000000000000000000000000000000000000604482015290519081900360640190fd5b600160a060020a038416600090815260016020526040902054151561058457600280546001810182556000919091527f405787fa12a823e0f2b7631cc41b3ba8828b3321ca811111fa75cd3aa3bb5ace01805473ffffffffffffffffffffffffffffffffffffffff1916600160a060020a0386161790555b60206040519081016040528061059b858585610718565b9052600160a060020a0385166000818152600160209081526040918290209351909355805191825263ffffffff86169282019290925265ffffffffffff808516828401528316606082015290517f8f2937989bca547b6a4247d39008fc9e5b6d3dbce3e598560401f44e5e68b3fd9181900360800190a150505050565b6000600160a060020a038216151561062f57600080fd5b50600160a060020a03166000908152602091909152604090205460ff1690565b63ffffffff6c010000000000000000000000008204169165ffffffffffff660100000000000083048116921690565b600160a060020a038116151561069357600080fd5b61069d8282610618565b156106a757600080fd5b600160a060020a0316600090815260209190915260409020805460ff19166001179055565b600160a060020a03811615156106e157600080fd5b6106eb8282610618565b15156106f657600080fd5b600160a060020a0316600090815260209190915260409020805460ff19169055565b65ffffffffffff908116911666010000000000000263ffffffff929092166c01000000000000000000000000029190911717905600a165627a7a723058200a3bf1a490baacaacc8783d9919a9cec2cd8971cd955519d60d59e3bb5fa48cb0029",
  "source": "pragma solidity 0.4.25;\n\nimport \"../node_modules/openzeppelin-solidity/contracts/access/Roles.sol\";\n\ncontract Membership {\n    using Roles for Roles.Role;\n\n    uint256 constant UINT_48_MASK = 0xffffffffffff;\n    uint256 constant UINT_32_MASK = 0xffffffff;\n\n    Roles.Role private admins;\n\n    struct Member {\n        uint256 packed;\n    }\n\n    mapping (address => Member) public members;\n    address[] public memberList;\n\n    event SetMember(address votingAddr, uint48 weight, uint48 startTime, uint48 endTime);\n    event AddAdmin(address admin);\n    event RevokeAdmin(address oldAdmin);\n\n    // modifier - authentication\n\n    modifier onlyAdmin() {\n        require(admins.has(msg.sender), \"NOT_ADMIN\");\n        _;\n    }\n\n    // constructor\n\n    constructor() public {\n        admins.add(msg.sender);\n        emit AddAdmin(msg.sender);\n    }\n\n    // manage roles\n\n    function addAdmin(address _a) external onlyAdmin {\n        admins.add(_a);\n        emit AddAdmin(msg.sender);\n    }\n\n    function revokeAdminSelf() external onlyAdmin {\n        admins.remove(msg.sender);\n        emit RevokeAdmin(msg.sender);\n    }\n\n    function isAdmin(address a) external view returns (bool) {\n        return admins.has(a);\n    }\n\n    // membership list management\n\n    function setMember(address votingAddr, uint32 weight, uint48 startTime, uint48 endTime) external onlyAdmin {\n        if (members[votingAddr].packed == 0) {\n            memberList.push(votingAddr);\n        }\n        members[votingAddr] = Member(pack(weight, startTime, endTime));\n        emit SetMember(votingAddr, weight, startTime, endTime);\n    }\n\n    function getMember(address voter) external view returns (uint32 weight, uint48 startTime, uint48 endTime) {\n        (weight, startTime, endTime) = unpack(members[voter].packed);\n    }\n\n    // utils\n\n    function pack(uint32 weight, uint48 start, uint48 end) internal pure returns (uint256) {\n        return (uint256(weight) << 96) | (uint256(start) << 48) | uint256(end);\n    }\n\n    function unpack(uint256 packed) internal pure returns (uint32 weight, uint48 start, uint48 end) {\n        weight = uint32((packed >> 96) & UINT_32_MASK);\n        start = uint48((packed >> 48) & UINT_48_MASK);\n        end = uint48(packed & UINT_48_MASK);\n    }\n\n    // erc20 shim\n\n    function balanceOf(address v) external view returns (uint256) {\n        uint32 weight; uint48 start; uint48 end;\n        (weight, start, end) = unpack(members[v].packed);\n        if (start <= now && end >= now) {\n            return weight;\n        }\n        return 0;\n    }\n\n}\n",
  "sourcePath": "/mnt/c/Users/XertroV/src/voting-alpha/ethereum/contracts/Membership.sol",
  "compiler": {
    "name": "solc",
    "version": "0.4.25+commit.59dbf8f1.Emscripten.clang"
  },
  "schemaVersion": "3.0.0",
  "updatedAt": "2018-12-26T04:18:03.891Z",
  "devdoc": {
    "methods": {}
  },
  "userdoc": {
    "methods": {}
  }
}